{
  "_format": "hh-sol-artifact-1",
  "contractName": "GBB",
  "sourceName": "contracts/GBB.sol",
  "abi": [
    {
      "inputs": [
        {
          "internalType": "string[]",
          "name": "_blendsHash",
          "type": "string[]"
        }
      ],
      "stateMutability": "nonpayable",
      "type": "constructor"
    },
    {
      "inputs": [
        {
          "internalType": "uint256",
          "name": "_moveId",
          "type": "uint256"
        }
      ],
      "name": "cancelMove",
      "outputs": [],
      "stateMutability": "nonpayable",
      "type": "function"
    },
    {
      "inputs": [],
      "name": "getMyMoves",
      "outputs": [
        {
          "components": [
            {
              "internalType": "enum GBB.StatusMove",
              "name": "status",
              "type": "uint8"
            },
            {
              "internalType": "bytes32",
              "name": "hashBlend",
              "type": "bytes32"
            },
            {
              "internalType": "uint256",
              "name": "prize",
              "type": "uint256"
            },
            {
              "internalType": "address",
              "name": "winner",
              "type": "address"
            }
          ],
          "internalType": "struct GBB.Move[]",
          "name": "",
          "type": "tuple[]"
        }
      ],
      "stateMutability": "view",
      "type": "function"
    },
    {
      "inputs": [],
      "name": "getUnplayedMoves",
      "outputs": [
        {
          "components": [
            {
              "internalType": "uint256",
              "name": "id",
              "type": "uint256"
            },
            {
              "internalType": "address",
              "name": "owner",
              "type": "address"
            },
            {
              "internalType": "uint256",
              "name": "prize",
              "type": "uint256"
            }
          ],
          "internalType": "struct GBB.MovePointer[]",
          "name": "",
          "type": "tuple[]"
        }
      ],
      "stateMutability": "view",
      "type": "function"
    },
    {
      "inputs": [
        {
          "internalType": "uint256",
          "name": "",
          "type": "uint256"
        }
      ],
      "name": "moves",
      "outputs": [
        {
          "internalType": "enum GBB.StatusMove",
          "name": "status",
          "type": "uint8"
        },
        {
          "internalType": "bytes32",
          "name": "hashBlend",
          "type": "bytes32"
        },
        {
          "internalType": "uint256",
          "name": "prize",
          "type": "uint256"
        },
        {
          "internalType": "address",
          "name": "winner",
          "type": "address"
        }
      ],
      "stateMutability": "view",
      "type": "function"
    },
    {
      "inputs": [
        {
          "internalType": "bytes32",
          "name": "_hashBlend",
          "type": "bytes32"
        }
      ],
      "name": "newMove",
      "outputs": [],
      "stateMutability": "payable",
      "type": "function"
    },
    {
      "inputs": [
        {
          "internalType": "uint256",
          "name": "_moveId",
          "type": "uint256"
        },
        {
          "internalType": "bytes32",
          "name": "adversaryHash",
          "type": "bytes32"
        }
      ],
      "name": "play",
      "outputs": [],
      "stateMutability": "payable",
      "type": "function"
    },
    {
      "inputs": [],
      "name": "withdraw",
      "outputs": [],
      "stateMutability": "nonpayable",
      "type": "function"
    }
  ],
  "bytecode": "0x6080604052600080553480156200001557600080fd5b50604051620042173803806200421783398181016040528101906200003b91906200030f565b8060059080519060200190620000539291906200005b565b5050620004f3565b828054828255906000526020600020908101928215620000af579160200282015b82811115620000ae5782518290805190602001906200009d929190620000c2565b50916020019190600101906200007c565b5b509050620000be919062000153565b5090565b828054620000d09062000418565b90600052602060002090601f016020900481019282620000f4576000855562000140565b82601f106200010f57805160ff191683800117855562000140565b8280016001018555821562000140579182015b828111156200013f57825182559160200191906001019062000122565b5b5090506200014f91906200017b565b5090565b5b808211156200017757600081816200016d91906200019a565b5060010162000154565b5090565b5b80821115620001965760008160009055506001016200017c565b5090565b508054620001a89062000418565b6000825580601f10620001bc5750620001dd565b601f016020900490600052602060002090810190620001dc91906200017b565b5b50565b6000620001f7620001f1846200037d565b62000354565b905080838252602082019050828560208602820111156200021757600080fd5b60005b858110156200026657815167ffffffffffffffff8111156200023b57600080fd5b8086016200024a8982620002e2565b855260208501945060208401935050506001810190506200021a565b5050509392505050565b6000620002876200028184620003ac565b62000354565b905082815260208101848484011115620002a057600080fd5b620002ad848285620003e2565b509392505050565b600082601f830112620002c757600080fd5b8151620002d9848260208601620001e0565b91505092915050565b600082601f830112620002f457600080fd5b81516200030684826020860162000270565b91505092915050565b6000602082840312156200032257600080fd5b600082015167ffffffffffffffff8111156200033d57600080fd5b6200034b84828501620002b5565b91505092915050565b60006200036062000373565b90506200036e82826200044e565b919050565b6000604051905090565b600067ffffffffffffffff8211156200039b576200039a620004b3565b5b602082029050602081019050919050565b600067ffffffffffffffff821115620003ca57620003c9620004b3565b5b620003d582620004e2565b9050602081019050919050565b60005b8381101562000402578082015181840152602081019050620003e5565b8381111562000412576000848401525b50505050565b600060028204905060018216806200043157607f821691505b6020821081141562000448576200044762000484565b5b50919050565b6200045982620004e2565b810181811067ffffffffffffffff821117156200047b576200047a620004b3565b5b80604052505050565b7f4e487b7100000000000000000000000000000000000000000000000000000000600052602260045260246000fd5b7f4e487b7100000000000000000000000000000000000000000000000000000000600052604160045260246000fd5b6000601f19601f8301169050919050565b613d1480620005036000396000f3fe6080604052600436106100705760003560e01c80633ccfd60b1161004e5780633ccfd60b146100e55780637698baec146100fc578063921fc2ac1461013c578063bf4bd0021461016757610070565b806309ddcbad146100755780631f4fa3f7146100a057806320f6ed6a146100c9575b600080fd5b34801561008157600080fd5b5061008a610183565b6040516100979190613903565b60405180910390f35b3480156100ac57600080fd5b506100c760048036038101906100c291906135eb565b6103f7565b005b6100e360048036038101906100de91906135c2565b6105eb565b005b3480156100f157600080fd5b506100fa610812565b005b34801561010857600080fd5b50610123600480360381019061011e91906135eb565b610922565b6040516101339493929190613947565b60405180910390f35b34801561014857600080fd5b5061015161098f565b60405161015e9190613925565b60405180910390f35b610181600480360381019061017c9190613614565b610d1d565b005b60606000805467ffffffffffffffff8111156101c8577f4e487b7100000000000000000000000000000000000000000000000000000000600052604160045260246000fd5b60405190808252806020026020018201604052801561020157816020015b6101ee6134e8565b8152602001906001900390816101e65790505b50905060005b6000548110156103ef576000600381111561024b577f4e487b7100000000000000000000000000000000000000000000000000000000600052602160045260246000fd5b60048281548110610285577f4e487b7100000000000000000000000000000000000000000000000000000000600052603260045260246000fd5b906000526020600020906004020160000160009054906101000a900460ff1660038111156102dc577f4e487b7100000000000000000000000000000000000000000000000000000000600052602160045260246000fd5b14156103dc5760006001600083815260200190815260200160002060009054906101000a900473ffffffffffffffffffffffffffffffffffffffff16905060405180606001604052808381526020018273ffffffffffffffffffffffffffffffffffffffff16815260200160048481548110610381577f4e487b7100000000000000000000000000000000000000000000000000000000600052603260045260246000fd5b9060005260206000209060040201600201548152508383815181106103cf577f4e487b7100000000000000000000000000000000000000000000000000000000600052603260045260246000fd5b6020026020010181905250505b80806103e790613b96565b915050610207565b508091505090565b3373ffffffffffffffffffffffffffffffffffffffff166001600083815260200190815260200160002060009054906101000a900473ffffffffffffffffffffffffffffffffffffffff1673ffffffffffffffffffffffffffffffffffffffff161461046257600080fd5b60006004828154811061049e577f4e487b7100000000000000000000000000000000000000000000000000000000600052603260045260246000fd5b90600052602060002090600402019050600060038111156104e8577f4e487b7100000000000000000000000000000000000000000000000000000000600052602160045260246000fd5b8160000160009054906101000a900460ff166003811115610532577f4e487b7100000000000000000000000000000000000000000000000000000000600052602160045260246000fd5b1461053c57600080fd5b60038160000160006101000a81548160ff0219169083600381111561058a577f4e487b7100000000000000000000000000000000000000000000000000000000600052602160045260246000fd5b02179055506000816002015490506000826002018190555080600360003373ffffffffffffffffffffffffffffffffffffffff1673ffffffffffffffffffffffffffffffffffffffff16815260200190815260200160002081905550505050565b6000604051806080016040528060006003811115610632577f4e487b7100000000000000000000000000000000000000000000000000000000600052602160045260246000fd5b8152602001838152602001348152602001600073ffffffffffffffffffffffffffffffffffffffff168152509050600481908060018154018082558091505060019003906000526020600020906004020160009091909190915060008201518160000160006101000a81548160ff021916908360038111156106dd577f4e487b7100000000000000000000000000000000000000000000000000000000600052602160045260246000fd5b0217905550602082015181600101556040820151816002015560608201518160030160006101000a81548173ffffffffffffffffffffffffffffffffffffffff021916908373ffffffffffffffffffffffffffffffffffffffff1602179055505050336001600060016004805490506107569190613ab5565b815260200190815260200160002060006101000a81548173ffffffffffffffffffffffffffffffffffffffff021916908373ffffffffffffffffffffffffffffffffffffffff160217905550600260003373ffffffffffffffffffffffffffffffffffffffff1673ffffffffffffffffffffffffffffffffffffffff16815260200190815260200160002060008154809291906107f290613b96565b919050555060008081548092919061080990613b96565b91905055505050565b6000600360003373ffffffffffffffffffffffffffffffffffffffff1673ffffffffffffffffffffffffffffffffffffffff1681526020019081526020016000205490506000811161086357600080fd5b6000600360003373ffffffffffffffffffffffffffffffffffffffff1673ffffffffffffffffffffffffffffffffffffffff1681526020019081526020016000208190555060003373ffffffffffffffffffffffffffffffffffffffff16826040516108ce906138ee565b60006040518083038185875af1925050503d806000811461090b576040519150601f19603f3d011682016040523d82523d6000602084013e610910565b606091505b505090508061091e57600080fd5b5050565b6004818154811061093257600080fd5b90600052602060002090600402016000915090508060000160009054906101000a900460ff16908060010154908060020154908060030160009054906101000a900473ffffffffffffffffffffffffffffffffffffffff16905084565b60606000600260003373ffffffffffffffffffffffffffffffffffffffff1673ffffffffffffffffffffffffffffffffffffffff1681526020019081526020016000205467ffffffffffffffff811115610a12577f4e487b7100000000000000000000000000000000000000000000000000000000600052604160045260246000fd5b604051908082528060200260200182016040528015610a4b57816020015b610a3861351f565b815260200190600190039081610a305790505b5090506000805b600054811015610d14573373ffffffffffffffffffffffffffffffffffffffff166001600083815260200190815260200160002060009054906101000a900473ffffffffffffffffffffffffffffffffffffffff1673ffffffffffffffffffffffffffffffffffffffff161480610b5f57503373ffffffffffffffffffffffffffffffffffffffff1660048281548110610b15577f4e487b7100000000000000000000000000000000000000000000000000000000600052603260045260246000fd5b906000526020600020906004020160030160009054906101000a900473ffffffffffffffffffffffffffffffffffffffff1673ffffffffffffffffffffffffffffffffffffffff16145b15610d0157600060048281548110610ba0577f4e487b7100000000000000000000000000000000000000000000000000000000600052603260045260246000fd5b90600052602060002090600402016040518060800160405290816000820160009054906101000a900460ff166003811115610c04577f4e487b7100000000000000000000000000000000000000000000000000000000600052602160045260246000fd5b6003811115610c3c577f4e487b7100000000000000000000000000000000000000000000000000000000600052602160045260246000fd5b815260200160018201548152602001600282015481526020016003820160009054906101000a900473ffffffffffffffffffffffffffffffffffffffff1673ffffffffffffffffffffffffffffffffffffffff1673ffffffffffffffffffffffffffffffffffffffff1681525050905080848481518110610ce6577f4e487b7100000000000000000000000000000000000000000000000000000000600052603260045260246000fd5b60200260200101819052508280610cfc90613b96565b935050505b8080610d0c90613b96565b915050610a52565b50819250505090565b600073ffffffffffffffffffffffffffffffffffffffff166001600084815260200190815260200160002060009054906101000a900473ffffffffffffffffffffffffffffffffffffffff1673ffffffffffffffffffffffffffffffffffffffff161415610d8a57600080fd5b3373ffffffffffffffffffffffffffffffffffffffff166001600084815260200190815260200160002060009054906101000a900473ffffffffffffffffffffffffffffffffffffffff1673ffffffffffffffffffffffffffffffffffffffff161415610df657600080fd5b600060048381548110610e32577f4e487b7100000000000000000000000000000000000000000000000000000000600052603260045260246000fd5b9060005260206000209060040201905060006003811115610e7c577f4e487b7100000000000000000000000000000000000000000000000000000000600052602160045260246000fd5b8160000160009054906101000a900460ff166003811115610ec6577f4e487b7100000000000000000000000000000000000000000000000000000000600052602160045260246000fd5b14610ed057600080fd5b80600201543414610ee057600080fd5b6000600267ffffffffffffffff811115610f23577f4e487b7100000000000000000000000000000000000000000000000000000000600052604160045260246000fd5b604051908082528060200260200182016040528015610f515781602001602082028036833780820191505090505b5090506000610f9783600101546001600088815260200190815260200160002060009054906101000a900473ffffffffffffffffffffffffffffffffffffffff16611a82565b90506000610fa58533611a82565b905060005b82518110156115f7576093838281518110610fee577f4e487b7100000000000000000000000000000000000000000000000000000000600052603260045260246000fd5b602002602001015163ffffffff161480156110505750610171828281518110611040577f4e487b7100000000000000000000000000000000000000000000000000000000600052603260045260246000fd5b602002602001015163ffffffff16145b156110b9578360008151811061108f577f4e487b7100000000000000000000000000000000000000000000000000000000600052603260045260246000fd5b6020026020010180518091906110a490613bdf565b63ffffffff1663ffffffff16815250506115e3565b6101028382815181106110f5577f4e487b7100000000000000000000000000000000000000000000000000000000600052603260045260246000fd5b602002602001015163ffffffff1614801561115657506093828281518110611146577f4e487b7100000000000000000000000000000000000000000000000000000000600052603260045260246000fd5b602002602001015163ffffffff16145b156111bf5783600081518110611195577f4e487b7100000000000000000000000000000000000000000000000000000000600052603260045260246000fd5b6020026020010180518091906111aa90613bdf565b63ffffffff1663ffffffff16815250506115e2565b6101718382815181106111fb577f4e487b7100000000000000000000000000000000000000000000000000000000600052603260045260246000fd5b602002602001015163ffffffff1614801561125d575061010282828151811061124d577f4e487b7100000000000000000000000000000000000000000000000000000000600052603260045260246000fd5b602002602001015163ffffffff16145b156112c6578360008151811061129c577f4e487b7100000000000000000000000000000000000000000000000000000000600052603260045260246000fd5b6020026020010180518091906112b190613bdf565b63ffffffff1663ffffffff16815250506115e1565b610171838281518110611302577f4e487b7100000000000000000000000000000000000000000000000000000000600052603260045260246000fd5b602002602001015163ffffffff1614801561136357506093828281518110611353577f4e487b7100000000000000000000000000000000000000000000000000000000600052603260045260246000fd5b602002602001015163ffffffff16145b156113cc57836001815181106113a2577f4e487b7100000000000000000000000000000000000000000000000000000000600052603260045260246000fd5b6020026020010180518091906113b790613bdf565b63ffffffff1663ffffffff16815250506115e0565b6093838281518110611407577f4e487b7100000000000000000000000000000000000000000000000000000000600052603260045260246000fd5b602002602001015163ffffffff161480156114695750610102828281518110611459577f4e487b7100000000000000000000000000000000000000000000000000000000600052603260045260246000fd5b602002602001015163ffffffff16145b156114d257836001815181106114a8577f4e487b7100000000000000000000000000000000000000000000000000000000600052603260045260246000fd5b6020026020010180518091906114bd90613bdf565b63ffffffff1663ffffffff16815250506115df565b61010283828151811061150e577f4e487b7100000000000000000000000000000000000000000000000000000000600052603260045260246000fd5b602002602001015163ffffffff161480156115705750610171828281518110611560577f4e487b7100000000000000000000000000000000000000000000000000000000600052603260045260246000fd5b602002602001015163ffffffff16145b156115d957836001815181106115af577f4e487b7100000000000000000000000000000000000000000000000000000000600052603260045260246000fd5b6020026020010180518091906115c490613bdf565b63ffffffff1663ffffffff16815250506115de565b6115e4565b5b5b5b5b5b5b80806115ef90613b96565b915050610faa565b5082600181518110611632577f4e487b7100000000000000000000000000000000000000000000000000000000600052603260045260246000fd5b602002602001015163ffffffff168360008151811061167a577f4e487b7100000000000000000000000000000000000000000000000000000000600052603260045260246000fd5b602002602001015163ffffffff1614156117a55760028460000160006101000a81548160ff021916908360038111156116dc577f4e487b7100000000000000000000000000000000000000000000000000000000600052602160045260246000fd5b021790555034600360003373ffffffffffffffffffffffffffffffffffffffff1673ffffffffffffffffffffffffffffffffffffffff16815260200190815260200160002081905550836002015460036000600160008a815260200190815260200160002060009054906101000a900473ffffffffffffffffffffffffffffffffffffffff1673ffffffffffffffffffffffffffffffffffffffff1673ffffffffffffffffffffffffffffffffffffffff16815260200190815260200160002081905550611a7a565b826001815181106117df577f4e487b7100000000000000000000000000000000000000000000000000000000600052603260045260246000fd5b602002602001015163ffffffff1683600081518110611827577f4e487b7100000000000000000000000000000000000000000000000000000000600052603260045260246000fd5b602002602001015163ffffffff16111561198f5760018460000160006101000a81548160ff02191690836003811115611889577f4e487b7100000000000000000000000000000000000000000000000000000000600052602160045260246000fd5b02179055506001600087815260200190815260200160002060009054906101000a900473ffffffffffffffffffffffffffffffffffffffff168460030160006101000a81548173ffffffffffffffffffffffffffffffffffffffff021916908373ffffffffffffffffffffffffffffffffffffffff1602179055503484600201546119149190613a5f565b60036000600160008a815260200190815260200160002060009054906101000a900473ffffffffffffffffffffffffffffffffffffffff1673ffffffffffffffffffffffffffffffffffffffff1673ffffffffffffffffffffffffffffffffffffffff16815260200190815260200160002081905550611a79565b60018460000160006101000a81548160ff021916908360038111156119dd577f4e487b7100000000000000000000000000000000000000000000000000000000600052602160045260246000fd5b0217905550338460030160006101000a81548173ffffffffffffffffffffffffffffffffffffffff021916908373ffffffffffffffffffffffffffffffffffffffff160217905550348460020154611a359190613a5f565b600360003373ffffffffffffffffffffffffffffffffffffffff1673ffffffffffffffffffffffffffffffffffffffff168152602001908152602001600020819055505b5b505050505050565b6060600080600367ffffffffffffffff811115611ac8577f4e487b7100000000000000000000000000000000000000000000000000000000600052604160045260246000fd5b604051908082528060200260200182016040528015611af65781602001602082028036833780820191505090505b50905060005b600580549050811015611b9957600060058281548110611b45577f4e487b7100000000000000000000000000000000000000000000000000000000600052603260045260246000fd5b9060005260206000200186604051602001611b6192919061398c565b60405160208183030381529060405280519060200120905080871415611b85578193505b508080611b9190613b96565b915050611afc565b5060008263ffffffff161415611cb057609381600081518110611be5577f4e487b7100000000000000000000000000000000000000000000000000000000600052603260045260246000fd5b602002602001019063ffffffff16908163ffffffff1681525050609381600181518110611c3b577f4e487b7100000000000000000000000000000000000000000000000000000000600052603260045260246000fd5b602002602001019063ffffffff16908163ffffffff1681525050609381600281518110611c91577f4e487b7100000000000000000000000000000000000000000000000000000000600052603260045260246000fd5b602002602001019063ffffffff16908163ffffffff16815250506134dd565b60018263ffffffff161415611dc75761010281600081518110611cfc577f4e487b7100000000000000000000000000000000000000000000000000000000600052603260045260246000fd5b602002602001019063ffffffff16908163ffffffff1681525050609381600181518110611d52577f4e487b7100000000000000000000000000000000000000000000000000000000600052603260045260246000fd5b602002602001019063ffffffff16908163ffffffff1681525050609381600281518110611da8577f4e487b7100000000000000000000000000000000000000000000000000000000600052603260045260246000fd5b602002602001019063ffffffff16908163ffffffff16815250506134dc565b60028263ffffffff161415611ede5761017181600081518110611e13577f4e487b7100000000000000000000000000000000000000000000000000000000600052603260045260246000fd5b602002602001019063ffffffff16908163ffffffff1681525050609381600181518110611e69577f4e487b7100000000000000000000000000000000000000000000000000000000600052603260045260246000fd5b602002602001019063ffffffff16908163ffffffff1681525050609381600281518110611ebf577f4e487b7100000000000000000000000000000000000000000000000000000000600052603260045260246000fd5b602002602001019063ffffffff16908163ffffffff16815250506134db565b60038263ffffffff161415611ff557609381600081518110611f29577f4e487b7100000000000000000000000000000000000000000000000000000000600052603260045260246000fd5b602002602001019063ffffffff16908163ffffffff168152505061010281600181518110611f80577f4e487b7100000000000000000000000000000000000000000000000000000000600052603260045260246000fd5b602002602001019063ffffffff16908163ffffffff1681525050609381600281518110611fd6577f4e487b7100000000000000000000000000000000000000000000000000000000600052603260045260246000fd5b602002602001019063ffffffff16908163ffffffff16815250506134da565b60048263ffffffff16141561210c57609381600081518110612040577f4e487b7100000000000000000000000000000000000000000000000000000000600052603260045260246000fd5b602002602001019063ffffffff16908163ffffffff168152505061017181600181518110612097577f4e487b7100000000000000000000000000000000000000000000000000000000600052603260045260246000fd5b602002602001019063ffffffff16908163ffffffff16815250506093816002815181106120ed577f4e487b7100000000000000000000000000000000000000000000000000000000600052603260045260246000fd5b602002602001019063ffffffff16908163ffffffff16815250506134d9565b60058263ffffffff16141561222357609381600081518110612157577f4e487b7100000000000000000000000000000000000000000000000000000000600052603260045260246000fd5b602002602001019063ffffffff16908163ffffffff16815250506093816001815181106121ad577f4e487b7100000000000000000000000000000000000000000000000000000000600052603260045260246000fd5b602002602001019063ffffffff16908163ffffffff168152505061010281600281518110612204577f4e487b7100000000000000000000000000000000000000000000000000000000600052603260045260246000fd5b602002602001019063ffffffff16908163ffffffff16815250506134d8565b60068263ffffffff16141561233a5760938160008151811061226e577f4e487b7100000000000000000000000000000000000000000000000000000000600052603260045260246000fd5b602002602001019063ffffffff16908163ffffffff16815250506093816001815181106122c4577f4e487b7100000000000000000000000000000000000000000000000000000000600052603260045260246000fd5b602002602001019063ffffffff16908163ffffffff16815250506101718160028151811061231b577f4e487b7100000000000000000000000000000000000000000000000000000000600052603260045260246000fd5b602002602001019063ffffffff16908163ffffffff16815250506134d7565b60078263ffffffff1614156124535761010281600081518110612386577f4e487b7100000000000000000000000000000000000000000000000000000000600052603260045260246000fd5b602002602001019063ffffffff16908163ffffffff1681525050610102816001815181106123dd577f4e487b7100000000000000000000000000000000000000000000000000000000600052603260045260246000fd5b602002602001019063ffffffff16908163ffffffff168152505061010281600281518110612434577f4e487b7100000000000000000000000000000000000000000000000000000000600052603260045260246000fd5b602002602001019063ffffffff16908163ffffffff16815250506134d6565b60088263ffffffff16141561256b5760938160008151811061249e577f4e487b7100000000000000000000000000000000000000000000000000000000600052603260045260246000fd5b602002602001019063ffffffff16908163ffffffff1681525050610102816001815181106124f5577f4e487b7100000000000000000000000000000000000000000000000000000000600052603260045260246000fd5b602002602001019063ffffffff16908163ffffffff16815250506101028160028151811061254c577f4e487b7100000000000000000000000000000000000000000000000000000000600052603260045260246000fd5b602002602001019063ffffffff16908163ffffffff16815250506134d5565b60098263ffffffff16141561268457610171816000815181106125b7577f4e487b7100000000000000000000000000000000000000000000000000000000600052603260045260246000fd5b602002602001019063ffffffff16908163ffffffff16815250506101028160018151811061260e577f4e487b7100000000000000000000000000000000000000000000000000000000600052603260045260246000fd5b602002602001019063ffffffff16908163ffffffff168152505061010281600281518110612665577f4e487b7100000000000000000000000000000000000000000000000000000000600052603260045260246000fd5b602002602001019063ffffffff16908163ffffffff16815250506134d4565b600a8263ffffffff16141561279c57610102816000815181106126d0577f4e487b7100000000000000000000000000000000000000000000000000000000600052603260045260246000fd5b602002602001019063ffffffff16908163ffffffff1681525050609381600181518110612726577f4e487b7100000000000000000000000000000000000000000000000000000000600052603260045260246000fd5b602002602001019063ffffffff16908163ffffffff16815250506101028160028151811061277d577f4e487b7100000000000000000000000000000000000000000000000000000000600052603260045260246000fd5b602002602001019063ffffffff16908163ffffffff16815250506134d3565b600b8263ffffffff1614156128b557610102816000815181106127e8577f4e487b7100000000000000000000000000000000000000000000000000000000600052603260045260246000fd5b602002602001019063ffffffff16908163ffffffff16815250506101718160018151811061283f577f4e487b7100000000000000000000000000000000000000000000000000000000600052603260045260246000fd5b602002602001019063ffffffff16908163ffffffff168152505061010281600281518110612896577f4e487b7100000000000000000000000000000000000000000000000000000000600052603260045260246000fd5b602002602001019063ffffffff16908163ffffffff16815250506134d2565b600c8263ffffffff1614156129cd5761010281600081518110612901577f4e487b7100000000000000000000000000000000000000000000000000000000600052603260045260246000fd5b602002602001019063ffffffff16908163ffffffff168152505061010281600181518110612958577f4e487b7100000000000000000000000000000000000000000000000000000000600052603260045260246000fd5b602002602001019063ffffffff16908163ffffffff16815250506093816002815181106129ae577f4e487b7100000000000000000000000000000000000000000000000000000000600052603260045260246000fd5b602002602001019063ffffffff16908163ffffffff16815250506134d1565b600d8263ffffffff161415612ae65761010281600081518110612a19577f4e487b7100000000000000000000000000000000000000000000000000000000600052603260045260246000fd5b602002602001019063ffffffff16908163ffffffff168152505061010281600181518110612a70577f4e487b7100000000000000000000000000000000000000000000000000000000600052603260045260246000fd5b602002602001019063ffffffff16908163ffffffff168152505061017181600281518110612ac7577f4e487b7100000000000000000000000000000000000000000000000000000000600052603260045260246000fd5b602002602001019063ffffffff16908163ffffffff16815250506134d0565b600e8263ffffffff161415612bff5761017181600081518110612b32577f4e487b7100000000000000000000000000000000000000000000000000000000600052603260045260246000fd5b602002602001019063ffffffff16908163ffffffff168152505061017181600181518110612b89577f4e487b7100000000000000000000000000000000000000000000000000000000600052603260045260246000fd5b602002602001019063ffffffff16908163ffffffff168152505061017181600281518110612be0577f4e487b7100000000000000000000000000000000000000000000000000000000600052603260045260246000fd5b602002602001019063ffffffff16908163ffffffff16815250506134cf565b600f8263ffffffff161415612d1757609381600081518110612c4a577f4e487b7100000000000000000000000000000000000000000000000000000000600052603260045260246000fd5b602002602001019063ffffffff16908163ffffffff168152505061017181600181518110612ca1577f4e487b7100000000000000000000000000000000000000000000000000000000600052603260045260246000fd5b602002602001019063ffffffff16908163ffffffff168152505061017181600281518110612cf8577f4e487b7100000000000000000000000000000000000000000000000000000000600052603260045260246000fd5b602002602001019063ffffffff16908163ffffffff16815250506134ce565b60108263ffffffff161415612e305761010281600081518110612d63577f4e487b7100000000000000000000000000000000000000000000000000000000600052603260045260246000fd5b602002602001019063ffffffff16908163ffffffff168152505061017181600181518110612dba577f4e487b7100000000000000000000000000000000000000000000000000000000600052603260045260246000fd5b602002602001019063ffffffff16908163ffffffff168152505061017181600281518110612e11577f4e487b7100000000000000000000000000000000000000000000000000000000600052603260045260246000fd5b602002602001019063ffffffff16908163ffffffff16815250506134cd565b60118263ffffffff161415612f485761017181600081518110612e7c577f4e487b7100000000000000000000000000000000000000000000000000000000600052603260045260246000fd5b602002602001019063ffffffff16908163ffffffff1681525050609381600181518110612ed2577f4e487b7100000000000000000000000000000000000000000000000000000000600052603260045260246000fd5b602002602001019063ffffffff16908163ffffffff168152505061017181600281518110612f29577f4e487b7100000000000000000000000000000000000000000000000000000000600052603260045260246000fd5b602002602001019063ffffffff16908163ffffffff16815250506134cc565b60128263ffffffff1614156130615761017181600081518110612f94577f4e487b7100000000000000000000000000000000000000000000000000000000600052603260045260246000fd5b602002602001019063ffffffff16908163ffffffff168152505061010281600181518110612feb577f4e487b7100000000000000000000000000000000000000000000000000000000600052603260045260246000fd5b602002602001019063ffffffff16908163ffffffff168152505061017181600281518110613042577f4e487b7100000000000000000000000000000000000000000000000000000000600052603260045260246000fd5b602002602001019063ffffffff16908163ffffffff16815250506134cb565b60138263ffffffff16141561317957610171816000815181106130ad577f4e487b7100000000000000000000000000000000000000000000000000000000600052603260045260246000fd5b602002602001019063ffffffff16908163ffffffff168152505061017181600181518110613104577f4e487b7100000000000000000000000000000000000000000000000000000000600052603260045260246000fd5b602002602001019063ffffffff16908163ffffffff168152505060938160028151811061315a577f4e487b7100000000000000000000000000000000000000000000000000000000600052603260045260246000fd5b602002602001019063ffffffff16908163ffffffff16815250506134ca565b60148263ffffffff16141561329257610171816000815181106131c5577f4e487b7100000000000000000000000000000000000000000000000000000000600052603260045260246000fd5b602002602001019063ffffffff16908163ffffffff16815250506101718160018151811061321c577f4e487b7100000000000000000000000000000000000000000000000000000000600052603260045260246000fd5b602002602001019063ffffffff16908163ffffffff168152505061010281600281518110613273577f4e487b7100000000000000000000000000000000000000000000000000000000600052603260045260246000fd5b602002602001019063ffffffff16908163ffffffff16815250506134c9565b60158263ffffffff1614156133aa576093816000815181106132dd577f4e487b7100000000000000000000000000000000000000000000000000000000600052603260045260246000fd5b602002602001019063ffffffff16908163ffffffff168152505061010281600181518110613334577f4e487b7100000000000000000000000000000000000000000000000000000000600052603260045260246000fd5b602002602001019063ffffffff16908163ffffffff16815250506101718160028151811061338b577f4e487b7100000000000000000000000000000000000000000000000000000000600052603260045260246000fd5b602002602001019063ffffffff16908163ffffffff16815250506134c8565b60168263ffffffff1614156134c257610171816000815181106133f6577f4e487b7100000000000000000000000000000000000000000000000000000000600052603260045260246000fd5b602002602001019063ffffffff16908163ffffffff16815250506101028160018151811061344d577f4e487b7100000000000000000000000000000000000000000000000000000000600052603260045260246000fd5b602002602001019063ffffffff16908163ffffffff16815250506093816002815181106134a3577f4e487b7100000000000000000000000000000000000000000000000000000000600052603260045260246000fd5b602002602001019063ffffffff16908163ffffffff16815250506134c7565b600080fd5b5b5b5b5b5b5b5b5b5b5b5b5b5b5b5b5b5b5b5b5b5b5b809250505092915050565b604051806060016040528060008152602001600073ffffffffffffffffffffffffffffffffffffffff168152602001600081525090565b604051806080016040528060006003811115613564577f4e487b7100000000000000000000000000000000000000000000000000000000600052602160045260246000fd5b81526020016000801916815260200160008152602001600073ffffffffffffffffffffffffffffffffffffffff1681525090565b6000813590506135a781613cb0565b92915050565b6000813590506135bc81613cc7565b92915050565b6000602082840312156135d457600080fd5b60006135e284828501613598565b91505092915050565b6000602082840312156135fd57600080fd5b600061360b848285016135ad565b91505092915050565b6000806040838503121561362757600080fd5b6000613635858286016135ad565b925050602061364685828601613598565b9150509250929050565b600061365c8383613839565b60608301905092915050565b6000613674838361387b565b60808301905092915050565b61368981613ae9565b82525050565b61369881613ae9565b82525050565b60006136a9826139f1565b6136b38185613a21565b93506136be836139bc565b8060005b838110156136ef5781516136d68882613650565b97506136e183613a07565b9250506001810190506136c2565b5085935050505092915050565b6000613707826139fc565b6137118185613a32565b935061371c836139cc565b8060005b8381101561374d5781516137348882613668565b975061373f83613a14565b925050600181019050613720565b5085935050505092915050565b61376381613afb565b82525050565b61377281613afb565b82525050565b61378181613b52565b82525050565b61379081613b52565b82525050565b600081546137a381613b64565b6137ad8186613a4e565b945060018216600081146137c857600181146137da5761380d565b60ff198316865260208601935061380d565b6137e3856139dc565b60005b83811015613805578154818901526001820191506020810190506137e6565b808801955050505b50505092915050565b6000613823600083613a43565b915061382e82613c99565b600082019050919050565b60608201600082015161384f60008501826138d0565b5060208201516138626020850182613680565b50604082015161387560408501826138d0565b50505050565b6080820160008201516138916000850182613778565b5060208201516138a4602085018261375a565b5060408201516138b760408501826138d0565b5060608201516138ca6060850182613680565b50505050565b6138d981613b38565b82525050565b6138e881613b38565b82525050565b60006138f982613816565b9150819050919050565b6000602082019050818103600083015261391d818461369e565b905092915050565b6000602082019050818103600083015261393f81846136fc565b905092915050565b600060808201905061395c6000830187613787565b6139696020830186613769565b61397660408301856138df565b613983606083018461368f565b95945050505050565b600060408201905081810360008301526139a68185613796565b90506139b5602083018461368f565b9392505050565b6000819050602082019050919050565b6000819050602082019050919050565b60008190508160005260206000209050919050565b600081519050919050565b600081519050919050565b6000602082019050919050565b6000602082019050919050565b600082825260208201905092915050565b600082825260208201905092915050565b600081905092915050565b600082825260208201905092915050565b6000613a6a82613b38565b9150613a7583613b38565b9250827fffffffffffffffffffffffffffffffffffffffffffffffffffffffffffffffff03821115613aaa57613aa9613c0c565b5b828201905092915050565b6000613ac082613b38565b9150613acb83613b38565b925082821015613ade57613add613c0c565b5b828203905092915050565b6000613af482613b18565b9050919050565b6000819050919050565b6000819050613b1382613c9c565b919050565b600073ffffffffffffffffffffffffffffffffffffffff82169050919050565b6000819050919050565b600063ffffffff82169050919050565b6000613b5d82613b05565b9050919050565b60006002820490506001821680613b7c57607f821691505b60208210811415613b9057613b8f613c6a565b5b50919050565b6000613ba182613b38565b91507fffffffffffffffffffffffffffffffffffffffffffffffffffffffffffffffff821415613bd457613bd3613c0c565b5b600182019050919050565b6000613bea82613b42565b915063ffffffff821415613c0157613c00613c0c565b5b600182019050919050565b7f4e487b7100000000000000000000000000000000000000000000000000000000600052601160045260246000fd5b7f4e487b7100000000000000000000000000000000000000000000000000000000600052602160045260246000fd5b7f4e487b7100000000000000000000000000000000000000000000000000000000600052602260045260246000fd5b50565b60048110613cad57613cac613c3b565b5b50565b613cb981613afb565b8114613cc457600080fd5b50565b613cd081613b38565b8114613cdb57600080fd5b5056fea2646970667358221220bdb26d8b3dc36653f98b70dd44e21f19c6c9a6aa43a08c6f4b5fe3846b03d5be64736f6c63430008040033",
  "linkReferences": {},
  "deployedLinkReferences": {}
}