{
  "_format": "hh-sol-artifact-1",
  "contractName": "GBB",
  "sourceName": "contracts/GBB.sol",
  "abi": [
    {
      "inputs": [
        {
          "internalType": "string[]",
          "name": "_blendsHash",
          "type": "string[]"
        }
      ],
      "stateMutability": "nonpayable",
      "type": "constructor"
    },
    {
      "anonymous": false,
      "inputs": [
        {
          "indexed": false,
          "internalType": "uint256",
          "name": "id",
          "type": "uint256"
        }
      ],
      "name": "MoveCancelled",
      "type": "event"
    },
    {
      "anonymous": false,
      "inputs": [
        {
          "indexed": false,
          "internalType": "uint256",
          "name": "id",
          "type": "uint256"
        },
        {
          "indexed": false,
          "internalType": "address",
          "name": "owner",
          "type": "address"
        },
        {
          "indexed": false,
          "internalType": "address",
          "name": "adversary",
          "type": "address"
        },
        {
          "indexed": false,
          "internalType": "address",
          "name": "winner",
          "type": "address"
        }
      ],
      "name": "MovePlayed",
      "type": "event"
    },
    {
      "anonymous": false,
      "inputs": [
        {
          "indexed": false,
          "internalType": "uint256",
          "name": "id",
          "type": "uint256"
        },
        {
          "indexed": false,
          "internalType": "address",
          "name": "owner",
          "type": "address"
        },
        {
          "indexed": false,
          "internalType": "uint256",
          "name": "prize",
          "type": "uint256"
        }
      ],
      "name": "NewMove",
      "type": "event"
    },
    {
      "anonymous": false,
      "inputs": [
        {
          "indexed": false,
          "internalType": "address",
          "name": "receiver",
          "type": "address"
        },
        {
          "indexed": false,
          "internalType": "uint256",
          "name": "amount",
          "type": "uint256"
        }
      ],
      "name": "Withdraw",
      "type": "event"
    },
    {
      "inputs": [
        {
          "internalType": "uint256",
          "name": "_moveId",
          "type": "uint256"
        }
      ],
      "name": "cancelMove",
      "outputs": [],
      "stateMutability": "nonpayable",
      "type": "function"
    },
    {
      "inputs": [],
      "name": "getMyMoves",
      "outputs": [
        {
          "components": [
            {
              "internalType": "enum GBB.StatusMove",
              "name": "status",
              "type": "uint8"
            },
            {
              "internalType": "bytes32",
              "name": "hashBlend",
              "type": "bytes32"
            },
            {
              "internalType": "uint256",
              "name": "prize",
              "type": "uint256"
            },
            {
              "internalType": "address",
              "name": "adversary",
              "type": "address"
            },
            {
              "internalType": "address",
              "name": "winner",
              "type": "address"
            }
          ],
          "internalType": "struct GBB.Move[]",
          "name": "",
          "type": "tuple[]"
        }
      ],
      "stateMutability": "view",
      "type": "function"
    },
    {
      "inputs": [],
      "name": "getMyUnclaimedAmount",
      "outputs": [
        {
          "internalType": "uint256",
          "name": "",
          "type": "uint256"
        }
      ],
      "stateMutability": "view",
      "type": "function"
    },
    {
      "inputs": [],
      "name": "getUnplayedMoves",
      "outputs": [
        {
          "components": [
            {
              "internalType": "uint256",
              "name": "id",
              "type": "uint256"
            },
            {
              "internalType": "address",
              "name": "owner",
              "type": "address"
            },
            {
              "internalType": "uint256",
              "name": "prize",
              "type": "uint256"
            }
          ],
          "internalType": "struct GBB.MovePointer[]",
          "name": "",
          "type": "tuple[]"
        }
      ],
      "stateMutability": "view",
      "type": "function"
    },
    {
      "inputs": [
        {
          "internalType": "uint256",
          "name": "",
          "type": "uint256"
        }
      ],
      "name": "moves",
      "outputs": [
        {
          "internalType": "enum GBB.StatusMove",
          "name": "status",
          "type": "uint8"
        },
        {
          "internalType": "bytes32",
          "name": "hashBlend",
          "type": "bytes32"
        },
        {
          "internalType": "uint256",
          "name": "prize",
          "type": "uint256"
        },
        {
          "internalType": "address",
          "name": "adversary",
          "type": "address"
        },
        {
          "internalType": "address",
          "name": "winner",
          "type": "address"
        }
      ],
      "stateMutability": "view",
      "type": "function"
    },
    {
      "inputs": [
        {
          "internalType": "bytes32",
          "name": "_hashBlend",
          "type": "bytes32"
        }
      ],
      "name": "newMove",
      "outputs": [],
      "stateMutability": "payable",
      "type": "function"
    },
    {
      "inputs": [
        {
          "internalType": "uint256",
          "name": "_moveId",
          "type": "uint256"
        },
        {
          "internalType": "bytes32",
          "name": "adversaryHash",
          "type": "bytes32"
        }
      ],
      "name": "play",
      "outputs": [],
      "stateMutability": "payable",
      "type": "function"
    },
    {
      "inputs": [],
      "name": "withdraw",
      "outputs": [],
      "stateMutability": "nonpayable",
      "type": "function"
    }
  ],
  "bytecode": "0x6080604052600080553480156200001557600080fd5b50604051620047e7380380620047e783398181016040528101906200003b91906200030f565b8060049080519060200190620000539291906200005b565b5050620004f3565b828054828255906000526020600020908101928215620000af579160200282015b82811115620000ae5782518290805190602001906200009d929190620000c2565b50916020019190600101906200007c565b5b509050620000be919062000153565b5090565b828054620000d09062000418565b90600052602060002090601f016020900481019282620000f4576000855562000140565b82601f106200010f57805160ff191683800117855562000140565b8280016001018555821562000140579182015b828111156200013f57825182559160200191906001019062000122565b5b5090506200014f91906200017b565b5090565b5b808211156200017757600081816200016d91906200019a565b5060010162000154565b5090565b5b80821115620001965760008160009055506001016200017c565b5090565b508054620001a89062000418565b6000825580601f10620001bc5750620001dd565b601f016020900490600052602060002090810190620001dc91906200017b565b5b50565b6000620001f7620001f1846200037d565b62000354565b905080838252602082019050828560208602820111156200021757600080fd5b60005b858110156200026657815167ffffffffffffffff8111156200023b57600080fd5b8086016200024a8982620002e2565b855260208501945060208401935050506001810190506200021a565b5050509392505050565b6000620002876200028184620003ac565b62000354565b905082815260208101848484011115620002a057600080fd5b620002ad848285620003e2565b509392505050565b600082601f830112620002c757600080fd5b8151620002d9848260208601620001e0565b91505092915050565b600082601f830112620002f457600080fd5b81516200030684826020860162000270565b91505092915050565b6000602082840312156200032257600080fd5b600082015167ffffffffffffffff8111156200033d57600080fd5b6200034b84828501620002b5565b91505092915050565b60006200036062000373565b90506200036e82826200044e565b919050565b6000604051905090565b600067ffffffffffffffff8211156200039b576200039a620004b3565b5b602082029050602081019050919050565b600067ffffffffffffffff821115620003ca57620003c9620004b3565b5b620003d582620004e2565b9050602081019050919050565b60005b8381101562000402578082015181840152602081019050620003e5565b8381111562000412576000848401525b50505050565b600060028204905060018216806200043157607f821691505b6020821081141562000448576200044762000484565b5b50919050565b6200045982620004e2565b810181811067ffffffffffffffff821117156200047b576200047a620004b3565b5b80604052505050565b7f4e487b7100000000000000000000000000000000000000000000000000000000600052602260045260246000fd5b7f4e487b7100000000000000000000000000000000000000000000000000000000600052604160045260246000fd5b6000601f19601f8301169050919050565b6142e480620005036000396000f3fe60806040526004361061007b5760003560e01c806349918e541161004e57806349918e54146101075780637698baec14610132578063921fc2ac14610173578063bf4bd0021461019e5761007b565b806309ddcbad146100805780631f4fa3f7146100ab57806320f6ed6a146100d45780633ccfd60b146100f0575b600080fd5b34801561008c57600080fd5b506100956101ba565b6040516100a29190613e2e565b60405180910390f35b3480156100b757600080fd5b506100d260048036038101906100cd9190613ada565b61043e565b005b6100ee60048036038101906100e99190613ab1565b61065f565b005b3480156100fc57600080fd5b506101056108e1565b005b34801561011357600080fd5b5061011c610a2a565b6040516101299190613ef5565b60405180910390f35b34801561013e57600080fd5b5061015960048036038101906101549190613ada565b610a71565b60405161016a959493929190613e72565b60405180910390f35b34801561017f57600080fd5b50610188610b04565b6040516101959190613e50565b60405180910390f35b6101b860048036038101906101b39190613b03565b610e9a565b005b60606000805467ffffffffffffffff8111156101ff577f4e487b7100000000000000000000000000000000000000000000000000000000600052604160045260246000fd5b60405190808252806020026020018201604052801561023857816020015b6102256139ba565b81526020019060019003908161021d5790505b5090506000805b6000548110156104355760006003811115610283577f4e487b7100000000000000000000000000000000000000000000000000000000600052602160045260246000fd5b600382815481106102bd577f4e487b7100000000000000000000000000000000000000000000000000000000600052603260045260246000fd5b906000526020600020906005020160000160009054906101000a900460ff166003811115610314577f4e487b7100000000000000000000000000000000000000000000000000000000600052602160045260246000fd5b14156104225760006001600083815260200190815260200160002060009054906101000a900473ffffffffffffffffffffffffffffffffffffffff16905060405180606001604052808381526020018273ffffffffffffffffffffffffffffffffffffffff168152602001600384815481106103b9577f4e487b7100000000000000000000000000000000000000000000000000000000600052603260045260246000fd5b906000526020600020906005020160020154815250848481518110610407577f4e487b7100000000000000000000000000000000000000000000000000000000600052603260045260246000fd5b6020026020010181905250828061041d90614166565b935050505b808061042d90614166565b91505061023f565b50819250505090565b3373ffffffffffffffffffffffffffffffffffffffff166001600083815260200190815260200160002060009054906101000a900473ffffffffffffffffffffffffffffffffffffffff1673ffffffffffffffffffffffffffffffffffffffff16146104a957600080fd5b6000600382815481106104e5577f4e487b7100000000000000000000000000000000000000000000000000000000600052603260045260246000fd5b906000526020600020906005020190506000600381111561052f577f4e487b7100000000000000000000000000000000000000000000000000000000600052602160045260246000fd5b8160000160009054906101000a900460ff166003811115610579577f4e487b7100000000000000000000000000000000000000000000000000000000600052602160045260246000fd5b1461058357600080fd5b60038160000160006101000a81548160ff021916908360038111156105d1577f4e487b7100000000000000000000000000000000000000000000000000000000600052602160045260246000fd5b021790555060008160020154905080600260003373ffffffffffffffffffffffffffffffffffffffff1673ffffffffffffffffffffffffffffffffffffffff168152602001908152602001600020819055507f1294210879d4ba0178a3ea23c858f2867c4e1081915f9c9b851cd73b470f2779836040516106529190613ef5565b60405180910390a1505050565b60006040518060a00160405280600060038111156106a6577f4e487b7100000000000000000000000000000000000000000000000000000000600052602160045260246000fd5b8152602001838152602001348152602001600073ffffffffffffffffffffffffffffffffffffffff168152602001600073ffffffffffffffffffffffffffffffffffffffff168152509050600381908060018154018082558091505060019003906000526020600020906005020160009091909190915060008201518160000160006101000a81548160ff0219169083600381111561076e577f4e487b7100000000000000000000000000000000000000000000000000000000600052602160045260246000fd5b0217905550602082015181600101556040820151816002015560608201518160030160006101000a81548173ffffffffffffffffffffffffffffffffffffffff021916908373ffffffffffffffffffffffffffffffffffffffff16021790555060808201518160040160006101000a81548173ffffffffffffffffffffffffffffffffffffffff021916908373ffffffffffffffffffffffffffffffffffffffff16021790555050503360016000600160038054905061082e9190614085565b815260200190815260200160002060006101000a81548173ffffffffffffffffffffffffffffffffffffffff021916908373ffffffffffffffffffffffffffffffffffffffff16021790555060008081548092919061088c90614166565b91905055507f773e103f9a717f86cc4c5e1dda4e62048d3f64c33093723960195b83e31b320f60016003805490506108c49190614085565b33346040516108d593929190613f55565b60405180910390a15050565b6000600260003373ffffffffffffffffffffffffffffffffffffffff1673ffffffffffffffffffffffffffffffffffffffff1681526020019081526020016000205490506000811161093257600080fd5b6000600260003373ffffffffffffffffffffffffffffffffffffffff1673ffffffffffffffffffffffffffffffffffffffff1681526020019081526020016000208190555060003373ffffffffffffffffffffffffffffffffffffffff168260405161099d90613df0565b60006040518083038185875af1925050503d80600081146109da576040519150601f19603f3d011682016040523d82523d6000602084013e6109df565b606091505b50509050806109ed57600080fd5b7f884edad9ce6fa2440d8a54cc123490eb96d2768479d49ff9c7366125a94243643383604051610a1e929190613e05565b60405180910390a15050565b6000600260003373ffffffffffffffffffffffffffffffffffffffff1673ffffffffffffffffffffffffffffffffffffffff16815260200190815260200160002054905090565b60038181548110610a8157600080fd5b90600052602060002090600502016000915090508060000160009054906101000a900460ff16908060010154908060020154908060030160009054906101000a900473ffffffffffffffffffffffffffffffffffffffff16908060040160009054906101000a900473ffffffffffffffffffffffffffffffffffffffff16905085565b60606000805467ffffffffffffffff811115610b49577f4e487b7100000000000000000000000000000000000000000000000000000000600052604160045260246000fd5b604051908082528060200260200182016040528015610b8257816020015b610b6f6139f1565b815260200190600190039081610b675790505b50905060005b600054811015610e92573373ffffffffffffffffffffffffffffffffffffffff166001600083815260200190815260200160002060009054906101000a900473ffffffffffffffffffffffffffffffffffffffff1673ffffffffffffffffffffffffffffffffffffffff161480610c9557503373ffffffffffffffffffffffffffffffffffffffff1660038281548110610c4b577f4e487b7100000000000000000000000000000000000000000000000000000000600052603260045260246000fd5b906000526020600020906005020160030160009054906101000a900473ffffffffffffffffffffffffffffffffffffffff1673ffffffffffffffffffffffffffffffffffffffff16145b15610e7f57600060038281548110610cd6577f4e487b7100000000000000000000000000000000000000000000000000000000600052603260045260246000fd5b90600052602060002090600502016040518060a00160405290816000820160009054906101000a900460ff166003811115610d3a577f4e487b7100000000000000000000000000000000000000000000000000000000600052602160045260246000fd5b6003811115610d72577f4e487b7100000000000000000000000000000000000000000000000000000000600052602160045260246000fd5b815260200160018201548152602001600282015481526020016003820160009054906101000a900473ffffffffffffffffffffffffffffffffffffffff1673ffffffffffffffffffffffffffffffffffffffff1673ffffffffffffffffffffffffffffffffffffffff1681526020016004820160009054906101000a900473ffffffffffffffffffffffffffffffffffffffff1673ffffffffffffffffffffffffffffffffffffffff1673ffffffffffffffffffffffffffffffffffffffff1681525050905080838381518110610e72577f4e487b7100000000000000000000000000000000000000000000000000000000600052603260045260246000fd5b6020026020010181905250505b8080610e8a90614166565b915050610b88565b508091505090565b600073ffffffffffffffffffffffffffffffffffffffff166001600084815260200190815260200160002060009054906101000a900473ffffffffffffffffffffffffffffffffffffffff1673ffffffffffffffffffffffffffffffffffffffff161415610f0757600080fd5b3373ffffffffffffffffffffffffffffffffffffffff166001600084815260200190815260200160002060009054906101000a900473ffffffffffffffffffffffffffffffffffffffff1673ffffffffffffffffffffffffffffffffffffffff161415610f7357600080fd5b600060038381548110610faf577f4e487b7100000000000000000000000000000000000000000000000000000000600052603260045260246000fd5b9060005260206000209060050201905060006003811115610ff9577f4e487b7100000000000000000000000000000000000000000000000000000000600052602160045260246000fd5b8160000160009054906101000a900460ff166003811115611043577f4e487b7100000000000000000000000000000000000000000000000000000000600052602160045260246000fd5b1461104d57600080fd5b8060020154341461105d57600080fd5b6000600267ffffffffffffffff8111156110a0577f4e487b7100000000000000000000000000000000000000000000000000000000600052604160045260246000fd5b6040519080825280602002602001820160405280156110ce5781602001602082028036833780820191505090505b509050600061111483600101546001600088815260200190815260200160002060009054906101000a900473ffffffffffffffffffffffffffffffffffffffff16611f54565b905060006111228533611f54565b905060005b825181101561177457609383828151811061116b577f4e487b7100000000000000000000000000000000000000000000000000000000600052603260045260246000fd5b602002602001015163ffffffff161480156111cd57506101718282815181106111bd577f4e487b7100000000000000000000000000000000000000000000000000000000600052603260045260246000fd5b602002602001015163ffffffff16145b15611236578360008151811061120c577f4e487b7100000000000000000000000000000000000000000000000000000000600052603260045260246000fd5b602002602001018051809190611221906141af565b63ffffffff1663ffffffff1681525050611760565b610102838281518110611272577f4e487b7100000000000000000000000000000000000000000000000000000000600052603260045260246000fd5b602002602001015163ffffffff161480156112d3575060938282815181106112c3577f4e487b7100000000000000000000000000000000000000000000000000000000600052603260045260246000fd5b602002602001015163ffffffff16145b1561133c5783600081518110611312577f4e487b7100000000000000000000000000000000000000000000000000000000600052603260045260246000fd5b602002602001018051809190611327906141af565b63ffffffff1663ffffffff168152505061175f565b610171838281518110611378577f4e487b7100000000000000000000000000000000000000000000000000000000600052603260045260246000fd5b602002602001015163ffffffff161480156113da57506101028282815181106113ca577f4e487b7100000000000000000000000000000000000000000000000000000000600052603260045260246000fd5b602002602001015163ffffffff16145b156114435783600081518110611419577f4e487b7100000000000000000000000000000000000000000000000000000000600052603260045260246000fd5b60200260200101805180919061142e906141af565b63ffffffff1663ffffffff168152505061175e565b61017183828151811061147f577f4e487b7100000000000000000000000000000000000000000000000000000000600052603260045260246000fd5b602002602001015163ffffffff161480156114e0575060938282815181106114d0577f4e487b7100000000000000000000000000000000000000000000000000000000600052603260045260246000fd5b602002602001015163ffffffff16145b15611549578360018151811061151f577f4e487b7100000000000000000000000000000000000000000000000000000000600052603260045260246000fd5b602002602001018051809190611534906141af565b63ffffffff1663ffffffff168152505061175d565b6093838281518110611584577f4e487b7100000000000000000000000000000000000000000000000000000000600052603260045260246000fd5b602002602001015163ffffffff161480156115e657506101028282815181106115d6577f4e487b7100000000000000000000000000000000000000000000000000000000600052603260045260246000fd5b602002602001015163ffffffff16145b1561164f5783600181518110611625577f4e487b7100000000000000000000000000000000000000000000000000000000600052603260045260246000fd5b60200260200101805180919061163a906141af565b63ffffffff1663ffffffff168152505061175c565b61010283828151811061168b577f4e487b7100000000000000000000000000000000000000000000000000000000600052603260045260246000fd5b602002602001015163ffffffff161480156116ed57506101718282815181106116dd577f4e487b7100000000000000000000000000000000000000000000000000000000600052603260045260246000fd5b602002602001015163ffffffff16145b15611756578360018151811061172c577f4e487b7100000000000000000000000000000000000000000000000000000000600052603260045260246000fd5b602002602001018051809190611741906141af565b63ffffffff1663ffffffff168152505061175b565b611761565b5b5b5b5b5b5b808061176c90614166565b915050611127565b50338460030160006101000a81548173ffffffffffffffffffffffffffffffffffffffff021916908373ffffffffffffffffffffffffffffffffffffffff160217905550826001815181106117f2577f4e487b7100000000000000000000000000000000000000000000000000000000600052603260045260246000fd5b602002602001015163ffffffff168360008151811061183a577f4e487b7100000000000000000000000000000000000000000000000000000000600052603260045260246000fd5b602002602001015163ffffffff1610156119f65760018460000160006101000a81548160ff0219169083600381111561189c577f4e487b7100000000000000000000000000000000000000000000000000000000600052602160045260246000fd5b0217905550338460040160006101000a81548173ffffffffffffffffffffffffffffffffffffffff021916908373ffffffffffffffffffffffffffffffffffffffff1602179055503484600201546118f4919061402f565b600260003373ffffffffffffffffffffffffffffffffffffffff1673ffffffffffffffffffffffffffffffffffffffff1681526020019081526020016000205461193e919061402f565b600260003373ffffffffffffffffffffffffffffffffffffffff1673ffffffffffffffffffffffffffffffffffffffff168152602001908152602001600020819055507fdecdf94d8da0c7ae463d58c038ac4abbba53e143bab55642420634b4ab22df28866001600089815260200190815260200160002060009054906101000a900473ffffffffffffffffffffffffffffffffffffffff1633336040516119e99493929190613f10565b60405180910390a1611f4c565b82600181518110611a30577f4e487b7100000000000000000000000000000000000000000000000000000000600052603260045260246000fd5b602002602001015163ffffffff1683600081518110611a78577f4e487b7100000000000000000000000000000000000000000000000000000000600052603260045260246000fd5b602002602001015163ffffffff161115611d005760018460000160006101000a81548160ff02191690836003811115611ada577f4e487b7100000000000000000000000000000000000000000000000000000000600052602160045260246000fd5b02179055506001600087815260200190815260200160002060009054906101000a900473ffffffffffffffffffffffffffffffffffffffff168460040160006101000a81548173ffffffffffffffffffffffffffffffffffffffff021916908373ffffffffffffffffffffffffffffffffffffffff160217905550348460020154611b65919061402f565b60026000600160008a815260200190815260200160002060009054906101000a900473ffffffffffffffffffffffffffffffffffffffff1673ffffffffffffffffffffffffffffffffffffffff1673ffffffffffffffffffffffffffffffffffffffff16815260200190815260200160002054611be2919061402f565b60026000600160008a815260200190815260200160002060009054906101000a900473ffffffffffffffffffffffffffffffffffffffff1673ffffffffffffffffffffffffffffffffffffffff1673ffffffffffffffffffffffffffffffffffffffff168152602001908152602001600020819055507fdecdf94d8da0c7ae463d58c038ac4abbba53e143bab55642420634b4ab22df28866001600089815260200190815260200160002060009054906101000a900473ffffffffffffffffffffffffffffffffffffffff1633600160008b815260200190815260200160002060009054906101000a900473ffffffffffffffffffffffffffffffffffffffff16604051611cf39493929190613f10565b60405180910390a1611f4b565b60028460000160006101000a81548160ff02191690836003811115611d4e577f4e487b7100000000000000000000000000000000000000000000000000000000600052602160045260246000fd5b021790555034600260003373ffffffffffffffffffffffffffffffffffffffff1673ffffffffffffffffffffffffffffffffffffffff16815260200190815260200160002054611d9e919061402f565b600260003373ffffffffffffffffffffffffffffffffffffffff1673ffffffffffffffffffffffffffffffffffffffff16815260200190815260200160002081905550836002015460026000600160008a815260200190815260200160002060009054906101000a900473ffffffffffffffffffffffffffffffffffffffff1673ffffffffffffffffffffffffffffffffffffffff1673ffffffffffffffffffffffffffffffffffffffff16815260200190815260200160002054611e63919061402f565b60026000600160008a815260200190815260200160002060009054906101000a900473ffffffffffffffffffffffffffffffffffffffff1673ffffffffffffffffffffffffffffffffffffffff1673ffffffffffffffffffffffffffffffffffffffff168152602001908152602001600020819055507fdecdf94d8da0c7ae463d58c038ac4abbba53e143bab55642420634b4ab22df28866001600089815260200190815260200160002060009054906101000a900473ffffffffffffffffffffffffffffffffffffffff16336000604051611f429493929190613f10565b60405180910390a15b5b505050505050565b6060600080600367ffffffffffffffff811115611f9a577f4e487b7100000000000000000000000000000000000000000000000000000000600052604160045260246000fd5b604051908082528060200260200182016040528015611fc85781602001602082028036833780820191505090505b50905060005b60048054905081101561206b57600060048281548110612017577f4e487b7100000000000000000000000000000000000000000000000000000000600052603260045260246000fd5b9060005260206000200186604051602001612033929190613ec5565b60405160208183030381529060405280519060200120905080871415612057578193505b50808061206390614166565b915050611fce565b5060008263ffffffff161415612182576093816000815181106120b7577f4e487b7100000000000000000000000000000000000000000000000000000000600052603260045260246000fd5b602002602001019063ffffffff16908163ffffffff168152505060938160018151811061210d577f4e487b7100000000000000000000000000000000000000000000000000000000600052603260045260246000fd5b602002602001019063ffffffff16908163ffffffff1681525050609381600281518110612163577f4e487b7100000000000000000000000000000000000000000000000000000000600052603260045260246000fd5b602002602001019063ffffffff16908163ffffffff16815250506139af565b60018263ffffffff16141561229957610102816000815181106121ce577f4e487b7100000000000000000000000000000000000000000000000000000000600052603260045260246000fd5b602002602001019063ffffffff16908163ffffffff1681525050609381600181518110612224577f4e487b7100000000000000000000000000000000000000000000000000000000600052603260045260246000fd5b602002602001019063ffffffff16908163ffffffff168152505060938160028151811061227a577f4e487b7100000000000000000000000000000000000000000000000000000000600052603260045260246000fd5b602002602001019063ffffffff16908163ffffffff16815250506139ae565b60028263ffffffff1614156123b057610171816000815181106122e5577f4e487b7100000000000000000000000000000000000000000000000000000000600052603260045260246000fd5b602002602001019063ffffffff16908163ffffffff168152505060938160018151811061233b577f4e487b7100000000000000000000000000000000000000000000000000000000600052603260045260246000fd5b602002602001019063ffffffff16908163ffffffff1681525050609381600281518110612391577f4e487b7100000000000000000000000000000000000000000000000000000000600052603260045260246000fd5b602002602001019063ffffffff16908163ffffffff16815250506139ad565b60038263ffffffff1614156124c7576093816000815181106123fb577f4e487b7100000000000000000000000000000000000000000000000000000000600052603260045260246000fd5b602002602001019063ffffffff16908163ffffffff168152505061010281600181518110612452577f4e487b7100000000000000000000000000000000000000000000000000000000600052603260045260246000fd5b602002602001019063ffffffff16908163ffffffff16815250506093816002815181106124a8577f4e487b7100000000000000000000000000000000000000000000000000000000600052603260045260246000fd5b602002602001019063ffffffff16908163ffffffff16815250506139ac565b60048263ffffffff1614156125de57609381600081518110612512577f4e487b7100000000000000000000000000000000000000000000000000000000600052603260045260246000fd5b602002602001019063ffffffff16908163ffffffff168152505061017181600181518110612569577f4e487b7100000000000000000000000000000000000000000000000000000000600052603260045260246000fd5b602002602001019063ffffffff16908163ffffffff16815250506093816002815181106125bf577f4e487b7100000000000000000000000000000000000000000000000000000000600052603260045260246000fd5b602002602001019063ffffffff16908163ffffffff16815250506139ab565b60058263ffffffff1614156126f557609381600081518110612629577f4e487b7100000000000000000000000000000000000000000000000000000000600052603260045260246000fd5b602002602001019063ffffffff16908163ffffffff168152505060938160018151811061267f577f4e487b7100000000000000000000000000000000000000000000000000000000600052603260045260246000fd5b602002602001019063ffffffff16908163ffffffff1681525050610102816002815181106126d6577f4e487b7100000000000000000000000000000000000000000000000000000000600052603260045260246000fd5b602002602001019063ffffffff16908163ffffffff16815250506139aa565b60068263ffffffff16141561280c57609381600081518110612740577f4e487b7100000000000000000000000000000000000000000000000000000000600052603260045260246000fd5b602002602001019063ffffffff16908163ffffffff1681525050609381600181518110612796577f4e487b7100000000000000000000000000000000000000000000000000000000600052603260045260246000fd5b602002602001019063ffffffff16908163ffffffff1681525050610171816002815181106127ed577f4e487b7100000000000000000000000000000000000000000000000000000000600052603260045260246000fd5b602002602001019063ffffffff16908163ffffffff16815250506139a9565b60078263ffffffff1614156129255761010281600081518110612858577f4e487b7100000000000000000000000000000000000000000000000000000000600052603260045260246000fd5b602002602001019063ffffffff16908163ffffffff1681525050610102816001815181106128af577f4e487b7100000000000000000000000000000000000000000000000000000000600052603260045260246000fd5b602002602001019063ffffffff16908163ffffffff168152505061010281600281518110612906577f4e487b7100000000000000000000000000000000000000000000000000000000600052603260045260246000fd5b602002602001019063ffffffff16908163ffffffff16815250506139a8565b60088263ffffffff161415612a3d57609381600081518110612970577f4e487b7100000000000000000000000000000000000000000000000000000000600052603260045260246000fd5b602002602001019063ffffffff16908163ffffffff1681525050610102816001815181106129c7577f4e487b7100000000000000000000000000000000000000000000000000000000600052603260045260246000fd5b602002602001019063ffffffff16908163ffffffff168152505061010281600281518110612a1e577f4e487b7100000000000000000000000000000000000000000000000000000000600052603260045260246000fd5b602002602001019063ffffffff16908163ffffffff16815250506139a7565b60098263ffffffff161415612b565761017181600081518110612a89577f4e487b7100000000000000000000000000000000000000000000000000000000600052603260045260246000fd5b602002602001019063ffffffff16908163ffffffff168152505061010281600181518110612ae0577f4e487b7100000000000000000000000000000000000000000000000000000000600052603260045260246000fd5b602002602001019063ffffffff16908163ffffffff168152505061010281600281518110612b37577f4e487b7100000000000000000000000000000000000000000000000000000000600052603260045260246000fd5b602002602001019063ffffffff16908163ffffffff16815250506139a6565b600a8263ffffffff161415612c6e5761010281600081518110612ba2577f4e487b7100000000000000000000000000000000000000000000000000000000600052603260045260246000fd5b602002602001019063ffffffff16908163ffffffff1681525050609381600181518110612bf8577f4e487b7100000000000000000000000000000000000000000000000000000000600052603260045260246000fd5b602002602001019063ffffffff16908163ffffffff168152505061010281600281518110612c4f577f4e487b7100000000000000000000000000000000000000000000000000000000600052603260045260246000fd5b602002602001019063ffffffff16908163ffffffff16815250506139a5565b600b8263ffffffff161415612d875761010281600081518110612cba577f4e487b7100000000000000000000000000000000000000000000000000000000600052603260045260246000fd5b602002602001019063ffffffff16908163ffffffff168152505061017181600181518110612d11577f4e487b7100000000000000000000000000000000000000000000000000000000600052603260045260246000fd5b602002602001019063ffffffff16908163ffffffff168152505061010281600281518110612d68577f4e487b7100000000000000000000000000000000000000000000000000000000600052603260045260246000fd5b602002602001019063ffffffff16908163ffffffff16815250506139a4565b600c8263ffffffff161415612e9f5761010281600081518110612dd3577f4e487b7100000000000000000000000000000000000000000000000000000000600052603260045260246000fd5b602002602001019063ffffffff16908163ffffffff168152505061010281600181518110612e2a577f4e487b7100000000000000000000000000000000000000000000000000000000600052603260045260246000fd5b602002602001019063ffffffff16908163ffffffff1681525050609381600281518110612e80577f4e487b7100000000000000000000000000000000000000000000000000000000600052603260045260246000fd5b602002602001019063ffffffff16908163ffffffff16815250506139a3565b600d8263ffffffff161415612fb85761010281600081518110612eeb577f4e487b7100000000000000000000000000000000000000000000000000000000600052603260045260246000fd5b602002602001019063ffffffff16908163ffffffff168152505061010281600181518110612f42577f4e487b7100000000000000000000000000000000000000000000000000000000600052603260045260246000fd5b602002602001019063ffffffff16908163ffffffff168152505061017181600281518110612f99577f4e487b7100000000000000000000000000000000000000000000000000000000600052603260045260246000fd5b602002602001019063ffffffff16908163ffffffff16815250506139a2565b600e8263ffffffff1614156130d15761017181600081518110613004577f4e487b7100000000000000000000000000000000000000000000000000000000600052603260045260246000fd5b602002602001019063ffffffff16908163ffffffff16815250506101718160018151811061305b577f4e487b7100000000000000000000000000000000000000000000000000000000600052603260045260246000fd5b602002602001019063ffffffff16908163ffffffff1681525050610171816002815181106130b2577f4e487b7100000000000000000000000000000000000000000000000000000000600052603260045260246000fd5b602002602001019063ffffffff16908163ffffffff16815250506139a1565b600f8263ffffffff1614156131e95760938160008151811061311c577f4e487b7100000000000000000000000000000000000000000000000000000000600052603260045260246000fd5b602002602001019063ffffffff16908163ffffffff168152505061017181600181518110613173577f4e487b7100000000000000000000000000000000000000000000000000000000600052603260045260246000fd5b602002602001019063ffffffff16908163ffffffff1681525050610171816002815181106131ca577f4e487b7100000000000000000000000000000000000000000000000000000000600052603260045260246000fd5b602002602001019063ffffffff16908163ffffffff16815250506139a0565b60108263ffffffff1614156133025761010281600081518110613235577f4e487b7100000000000000000000000000000000000000000000000000000000600052603260045260246000fd5b602002602001019063ffffffff16908163ffffffff16815250506101718160018151811061328c577f4e487b7100000000000000000000000000000000000000000000000000000000600052603260045260246000fd5b602002602001019063ffffffff16908163ffffffff1681525050610171816002815181106132e3577f4e487b7100000000000000000000000000000000000000000000000000000000600052603260045260246000fd5b602002602001019063ffffffff16908163ffffffff168152505061399f565b60118263ffffffff16141561341a576101718160008151811061334e577f4e487b7100000000000000000000000000000000000000000000000000000000600052603260045260246000fd5b602002602001019063ffffffff16908163ffffffff16815250506093816001815181106133a4577f4e487b7100000000000000000000000000000000000000000000000000000000600052603260045260246000fd5b602002602001019063ffffffff16908163ffffffff1681525050610171816002815181106133fb577f4e487b7100000000000000000000000000000000000000000000000000000000600052603260045260246000fd5b602002602001019063ffffffff16908163ffffffff168152505061399e565b60128263ffffffff1614156135335761017181600081518110613466577f4e487b7100000000000000000000000000000000000000000000000000000000600052603260045260246000fd5b602002602001019063ffffffff16908163ffffffff1681525050610102816001815181106134bd577f4e487b7100000000000000000000000000000000000000000000000000000000600052603260045260246000fd5b602002602001019063ffffffff16908163ffffffff168152505061017181600281518110613514577f4e487b7100000000000000000000000000000000000000000000000000000000600052603260045260246000fd5b602002602001019063ffffffff16908163ffffffff168152505061399d565b60138263ffffffff16141561364b576101718160008151811061357f577f4e487b7100000000000000000000000000000000000000000000000000000000600052603260045260246000fd5b602002602001019063ffffffff16908163ffffffff1681525050610171816001815181106135d6577f4e487b7100000000000000000000000000000000000000000000000000000000600052603260045260246000fd5b602002602001019063ffffffff16908163ffffffff168152505060938160028151811061362c577f4e487b7100000000000000000000000000000000000000000000000000000000600052603260045260246000fd5b602002602001019063ffffffff16908163ffffffff168152505061399c565b60148263ffffffff1614156137645761017181600081518110613697577f4e487b7100000000000000000000000000000000000000000000000000000000600052603260045260246000fd5b602002602001019063ffffffff16908163ffffffff1681525050610171816001815181106136ee577f4e487b7100000000000000000000000000000000000000000000000000000000600052603260045260246000fd5b602002602001019063ffffffff16908163ffffffff168152505061010281600281518110613745577f4e487b7100000000000000000000000000000000000000000000000000000000600052603260045260246000fd5b602002602001019063ffffffff16908163ffffffff168152505061399b565b60158263ffffffff16141561387c576093816000815181106137af577f4e487b7100000000000000000000000000000000000000000000000000000000600052603260045260246000fd5b602002602001019063ffffffff16908163ffffffff168152505061010281600181518110613806577f4e487b7100000000000000000000000000000000000000000000000000000000600052603260045260246000fd5b602002602001019063ffffffff16908163ffffffff16815250506101718160028151811061385d577f4e487b7100000000000000000000000000000000000000000000000000000000600052603260045260246000fd5b602002602001019063ffffffff16908163ffffffff168152505061399a565b60168263ffffffff16141561399457610171816000815181106138c8577f4e487b7100000000000000000000000000000000000000000000000000000000600052603260045260246000fd5b602002602001019063ffffffff16908163ffffffff16815250506101028160018151811061391f577f4e487b7100000000000000000000000000000000000000000000000000000000600052603260045260246000fd5b602002602001019063ffffffff16908163ffffffff1681525050609381600281518110613975577f4e487b7100000000000000000000000000000000000000000000000000000000600052603260045260246000fd5b602002602001019063ffffffff16908163ffffffff1681525050613999565b600080fd5b5b5b5b5b5b5b5b5b5b5b5b5b5b5b5b5b5b5b5b5b5b5b809250505092915050565b604051806060016040528060008152602001600073ffffffffffffffffffffffffffffffffffffffff168152602001600081525090565b6040518060a0016040528060006003811115613a36577f4e487b7100000000000000000000000000000000000000000000000000000000600052602160045260246000fd5b81526020016000801916815260200160008152602001600073ffffffffffffffffffffffffffffffffffffffff168152602001600073ffffffffffffffffffffffffffffffffffffffff1681525090565b600081359050613a9681614280565b92915050565b600081359050613aab81614297565b92915050565b600060208284031215613ac357600080fd5b6000613ad184828501613a87565b91505092915050565b600060208284031215613aec57600080fd5b6000613afa84828501613a9c565b91505092915050565b60008060408385031215613b1657600080fd5b6000613b2485828601613a9c565b9250506020613b3585828601613a87565b9150509250929050565b6000613b4b8383613d28565b60608301905092915050565b6000613b638383613d6a565b60a08301905092915050565b613b78816140b9565b82525050565b613b87816140b9565b82525050565b6000613b9882613fc1565b613ba28185613ff1565b9350613bad83613f8c565b8060005b83811015613bde578151613bc58882613b3f565b9750613bd083613fd7565b925050600181019050613bb1565b5085935050505092915050565b6000613bf682613fcc565b613c008185614002565b9350613c0b83613f9c565b8060005b83811015613c3c578151613c238882613b57565b9750613c2e83613fe4565b925050600181019050613c0f565b5085935050505092915050565b613c52816140cb565b82525050565b613c61816140cb565b82525050565b613c7081614122565b82525050565b613c7f81614122565b82525050565b60008154613c9281614134565b613c9c818661401e565b94506001821660008114613cb75760018114613cc957613cfc565b60ff1983168652602086019350613cfc565b613cd285613fac565b60005b83811015613cf457815481890152600182019150602081019050613cd5565b808801955050505b50505092915050565b6000613d12600083614013565b9150613d1d82614269565b600082019050919050565b606082016000820151613d3e6000850182613dd2565b506020820151613d516020850182613b6f565b506040820151613d646040850182613dd2565b50505050565b60a082016000820151613d806000850182613c67565b506020820151613d936020850182613c49565b506040820151613da66040850182613dd2565b506060820151613db96060850182613b6f565b506080820151613dcc6080850182613b6f565b50505050565b613ddb81614108565b82525050565b613dea81614108565b82525050565b6000613dfb82613d05565b9150819050919050565b6000604082019050613e1a6000830185613b7e565b613e276020830184613de1565b9392505050565b60006020820190508181036000830152613e488184613b8d565b905092915050565b60006020820190508181036000830152613e6a8184613beb565b905092915050565b600060a082019050613e876000830188613c76565b613e946020830187613c58565b613ea16040830186613de1565b613eae6060830185613b7e565b613ebb6080830184613b7e565b9695505050505050565b60006040820190508181036000830152613edf8185613c85565b9050613eee6020830184613b7e565b9392505050565b6000602082019050613f0a6000830184613de1565b92915050565b6000608082019050613f256000830187613de1565b613f326020830186613b7e565b613f3f6040830185613b7e565b613f4c6060830184613b7e565b95945050505050565b6000606082019050613f6a6000830186613de1565b613f776020830185613b7e565b613f846040830184613de1565b949350505050565b6000819050602082019050919050565b6000819050602082019050919050565b60008190508160005260206000209050919050565b600081519050919050565b600081519050919050565b6000602082019050919050565b6000602082019050919050565b600082825260208201905092915050565b600082825260208201905092915050565b600081905092915050565b600082825260208201905092915050565b600061403a82614108565b915061404583614108565b9250827fffffffffffffffffffffffffffffffffffffffffffffffffffffffffffffffff0382111561407a576140796141dc565b5b828201905092915050565b600061409082614108565b915061409b83614108565b9250828210156140ae576140ad6141dc565b5b828203905092915050565b60006140c4826140e8565b9050919050565b6000819050919050565b60008190506140e38261426c565b919050565b600073ffffffffffffffffffffffffffffffffffffffff82169050919050565b6000819050919050565b600063ffffffff82169050919050565b600061412d826140d5565b9050919050565b6000600282049050600182168061414c57607f821691505b602082108114156141605761415f61423a565b5b50919050565b600061417182614108565b91507fffffffffffffffffffffffffffffffffffffffffffffffffffffffffffffffff8214156141a4576141a36141dc565b5b600182019050919050565b60006141ba82614112565b915063ffffffff8214156141d1576141d06141dc565b5b600182019050919050565b7f4e487b7100000000000000000000000000000000000000000000000000000000600052601160045260246000fd5b7f4e487b7100000000000000000000000000000000000000000000000000000000600052602160045260246000fd5b7f4e487b7100000000000000000000000000000000000000000000000000000000600052602260045260246000fd5b50565b6004811061427d5761427c61420b565b5b50565b614289816140cb565b811461429457600080fd5b50565b6142a081614108565b81146142ab57600080fd5b5056fea264697066735822122019bf5926d7f9af5e645c9be963491c2fcd91004141d03eb615c6cf4c020ddd5064736f6c63430008040033",
  "linkReferences": {},
  "deployedLinkReferences": {}
}